{
  "contractName": "dBank",
  "abi": [
    {
      "inputs": [
        {
          "internalType": "contract Token",
          "name": "_token",
          "type": "address"
        }
      ],
      "stateMutability": "nonpayable",
      "type": "constructor"
    },
    {
      "inputs": [
        {
          "internalType": "address",
          "name": "",
          "type": "address"
        }
      ],
      "name": "isDeposited",
      "outputs": [
        {
          "internalType": "bool",
          "name": "",
          "type": "bool"
        }
      ],
      "stateMutability": "view",
      "type": "function",
      "constant": true
    },
    {
      "inputs": [
        {
          "internalType": "address",
          "name": "",
          "type": "address"
        }
      ],
      "name": "isStake",
      "outputs": [
        {
          "internalType": "bool",
          "name": "",
          "type": "bool"
        }
      ],
      "stateMutability": "view",
      "type": "function",
      "constant": true
    },
    {
      "inputs": [],
      "name": "receiver",
      "outputs": [
        {
          "internalType": "address payable",
          "name": "",
          "type": "address"
        }
      ],
      "stateMutability": "view",
      "type": "function",
      "constant": true
    },
    {
      "inputs": [
        {
          "internalType": "address",
          "name": "",
          "type": "address"
        }
      ],
      "name": "staked",
      "outputs": [
        {
          "internalType": "bool",
          "name": "",
          "type": "bool"
        }
      ],
      "stateMutability": "view",
      "type": "function",
      "constant": true
    },
    {
      "inputs": [
        {
          "internalType": "uint256",
          "name": "",
          "type": "uint256"
        }
      ],
      "name": "stakerAddress",
      "outputs": [
        {
          "internalType": "address",
          "name": "",
          "type": "address"
        }
      ],
      "stateMutability": "view",
      "type": "function",
      "constant": true
    },
    {
      "inputs": [
        {
          "internalType": "address",
          "name": "",
          "type": "address"
        }
      ],
      "name": "userInfo",
      "outputs": [
        {
          "internalType": "uint256",
          "name": "etherBalanceOf",
          "type": "uint256"
        },
        {
          "internalType": "uint256",
          "name": "TokenBalanceOf",
          "type": "uint256"
        },
        {
          "internalType": "uint256",
          "name": "borrowIndex",
          "type": "uint256"
        },
        {
          "internalType": "uint256",
          "name": "lenderIndex",
          "type": "uint256"
        }
      ],
      "stateMutability": "view",
      "type": "function",
      "constant": true
    },
    {
      "inputs": [],
      "name": "deposit",
      "outputs": [],
      "stateMutability": "payable",
      "type": "function",
      "payable": true
    },
    {
      "inputs": [],
      "name": "withdraw",
      "outputs": [],
      "stateMutability": "payable",
      "type": "function",
      "payable": true
    },
    {
      "inputs": [
        {
          "internalType": "uint256",
          "name": "amount",
          "type": "uint256"
        }
      ],
      "name": "CocWithEtherDeposit",
      "outputs": [],
      "stateMutability": "payable",
      "type": "function",
      "payable": true
    },
    {
      "inputs": [],
      "name": "Coc",
      "outputs": [],
      "stateMutability": "payable",
      "type": "function",
      "payable": true
    },
    {
      "inputs": [
        {
          "internalType": "uint256",
          "name": "amount",
          "type": "uint256"
        }
      ],
      "name": "CocWithToken",
      "outputs": [],
      "stateMutability": "payable",
      "type": "function",
      "payable": true
    },
    {
      "inputs": [
        {
          "internalType": "address payable",
          "name": "receiver",
          "type": "address"
        },
        {
          "internalType": "uint256",
          "name": "index",
          "type": "uint256"
        }
      ],
      "name": "withState",
      "outputs": [],
      "stateMutability": "nonpayable",
      "type": "function"
    },
    {
      "inputs": [
        {
          "internalType": "address payable",
          "name": "receiver",
          "type": "address"
        },
        {
          "internalType": "uint256",
          "name": "index",
          "type": "uint256"
        }
      ],
      "name": "withStateToken",
      "outputs": [],
      "stateMutability": "nonpayable",
      "type": "function"
    },
    {
      "inputs": [
        {
          "internalType": "address payable",
          "name": "receiver",
          "type": "address"
        },
        {
          "internalType": "uint256",
          "name": "interested",
          "type": "uint256"
        }
      ],
      "name": "lendToken",
      "outputs": [],
      "stateMutability": "payable",
      "type": "function",
      "payable": true
    },
    {
      "inputs": [
        {
          "internalType": "address payable",
          "name": "receiver",
          "type": "address"
        },
        {
          "internalType": "uint256",
          "name": "amount",
          "type": "uint256"
        },
        {
          "internalType": "uint256",
          "name": "interested",
          "type": "uint256"
        }
      ],
      "name": "lendEther",
      "outputs": [],
      "stateMutability": "payable",
      "type": "function",
      "payable": true
    },
    {
      "inputs": [
        {
          "internalType": "address payable",
          "name": "receiver",
          "type": "address"
        },
        {
          "internalType": "uint256",
          "name": "interested",
          "type": "uint256"
        }
      ],
      "name": "lendEtherDerectly",
      "outputs": [],
      "stateMutability": "payable",
      "type": "function",
      "payable": true
    },
    {
      "inputs": [
        {
          "internalType": "address payable",
          "name": "receiver",
          "type": "address"
        },
        {
          "internalType": "uint256",
          "name": "amount",
          "type": "uint256"
        },
        {
          "internalType": "uint256",
          "name": "index",
          "type": "uint256"
        }
      ],
      "name": "payOffEther",
      "outputs": [],
      "stateMutability": "payable",
      "type": "function",
      "payable": true
    },
    {
      "inputs": [
        {
          "internalType": "address payable",
          "name": "receiver",
          "type": "address"
        },
        {
          "internalType": "uint256",
          "name": "amount",
          "type": "uint256"
        },
        {
          "internalType": "uint256",
          "name": "index",
          "type": "uint256"
        }
      ],
      "name": "payOffToken",
      "outputs": [],
      "stateMutability": "payable",
      "type": "function",
      "payable": true
    },
    {
      "inputs": [],
      "name": "getStaker",
      "outputs": [
        {
          "internalType": "address[]",
          "name": "allStaker",
          "type": "address[]"
        }
      ],
      "stateMutability": "view",
      "type": "function",
      "constant": true
    },
    {
      "inputs": [
        {
          "internalType": "address",
          "name": "stakerAddr",
          "type": "address"
        }
      ],
      "name": "getStakerInfo",
      "outputs": [
        {
          "internalType": "uint256",
          "name": "index",
          "type": "uint256"
        },
        {
          "internalType": "uint256[]",
          "name": "stakeBalanceOf",
          "type": "uint256[]"
        },
        {
          "internalType": "string[]",
          "name": "stakeMethod",
          "type": "string[]"
        }
      ],
      "stateMutability": "view",
      "type": "function",
      "constant": true
    },
    {
      "inputs": [
        {
          "internalType": "address",
          "name": "userAddr",
          "type": "address"
        }
      ],
      "name": "getUserInfo",
      "outputs": [
        {
          "internalType": "uint256",
          "name": "etherBalance",
          "type": "uint256"
        },
        {
          "internalType": "uint256",
          "name": "tokenBalance",
          "type": "uint256"
        },
        {
          "internalType": "uint256",
          "name": "borrowIndex",
          "type": "uint256"
        },
        {
          "internalType": "uint256",
          "name": "lendIndex",
          "type": "uint256"
        }
      ],
      "stateMutability": "view",
      "type": "function",
      "constant": true
    },
    {
      "inputs": [
        {
          "internalType": "address",
          "name": "userAddr",
          "type": "address"
        }
      ],
      "name": "getBorrowInfo",
      "outputs": [
        {
          "internalType": "address[]",
          "name": "borrower",
          "type": "address[]"
        },
        {
          "internalType": "uint256[]",
          "name": "borrowAmount",
          "type": "uint256[]"
        },
        {
          "internalType": "uint256[]",
          "name": "borrowInterest",
          "type": "uint256[]"
        },
        {
          "internalType": "uint256[]",
          "name": "borrowerPayOffAmount",
          "type": "uint256[]"
        },
        {
          "internalType": "string[]",
          "name": "borrowMethod",
          "type": "string[]"
        }
      ],
      "stateMutability": "view",
      "type": "function",
      "constant": true
    },
    {
      "inputs": [
        {
          "internalType": "address",
          "name": "userAddr",
          "type": "address"
        }
      ],
      "name": "getLendInfo",
      "outputs": [
        {
          "internalType": "address[]",
          "name": "lender",
          "type": "address[]"
        },
        {
          "internalType": "uint256[]",
          "name": "lendAmount",
          "type": "uint256[]"
        },
        {
          "internalType": "uint256[]",
          "name": "lendInterest",
          "type": "uint256[]"
        },
        {
          "internalType": "uint256[]",
          "name": "lenderPayOffAmount",
          "type": "uint256[]"
        },
        {
          "internalType": "string[]",
          "name": "lendMethod",
          "type": "string[]"
        }
      ],
      "stateMutability": "view",
      "type": "function",
      "constant": true
    }
  ],
  "bytecode": "0x60806040523480156200001157600080fd5b506040516200512f3803806200512f833981810160405281019062000037919062000095565b806000806101000a81548173ffffffffffffffffffffffffffffffffffffffff021916908373ffffffffffffffffffffffffffffffffffffffff1602179055505062000123565b6000815190506200008f8162000109565b92915050565b600060208284031215620000a857600080fd5b6000620000b8848285016200007e565b91505092915050565b6000620000ce82620000e9565b9050919050565b6000620000e282620000c1565b9050919050565b600073ffffffffffffffffffffffffffffffffffffffff82169050919050565b6200011481620000d5565b81146200012057600080fd5b50565b614ffc80620001336000396000f3fe6080604052600436106101405760003560e01c8063772584a9116100b6578063bcacb4561161006f578063bcacb456146103f4578063c5aa984414610410578063d0e30db01461044d578063df073e0d14610457578063f2e288b714610498578063f7260d3e146104d957610140565b8063772584a9146102f057806392f39ecd14610319578063940670451461033557806398807d84146103725780639c10a678146103af578063b8a35852146103cb57610140565b80633ccfd60b116101085780633ccfd60b146101f55780636386c1c7146101ff5780636dfd54201461023f57806372b45a5514610249578063733bdef01461027457806373732024146102b357610140565b806301658b22146101455780631959a0021461016157806325470355146101a1578063260b5289146101bd5780632b4401ff146101d9575b600080fd5b61015f600480360381019061015a91906145d4565b610504565b005b34801561016d57600080fd5b50610188600480360381019061018391906145ab565b610b1d565b6040516101989493929190614d79565b60405180910390f35b6101bb60048036038101906101b691906145d4565b610b4d565b005b6101d760048036038101906101d29190614688565b6112f4565b005b6101f360048036038101906101ee9190614688565b6117e3565b005b6101fd611bf6565b005b34801561020b57600080fd5b50610226600480360381019061022191906145ab565b611e0e565b6040516102369493929190614d79565b60405180910390f35b610247611f2f565b005b34801561025557600080fd5b5061025e612306565b60405161026b9190614ba1565b60405180910390f35b34801561028057600080fd5b5061029b600480360381019061029691906145ab565b612394565b6040516102aa93929190614d34565b60405180910390f35b3480156102bf57600080fd5b506102da60048036038101906102d591906145ab565b61259c565b6040516102e79190614c39565b60405180910390f35b3480156102fc57600080fd5b50610317600480360381019061031291906145d4565b6125bc565b005b610333600480360381019061032e9190614610565b6129c2565b005b34801561034157600080fd5b5061035c60048036038101906103579190614688565b612db0565b6040516103699190614ad4565b60405180910390f35b34801561037e57600080fd5b50610399600480360381019061039491906145ab565b612def565b6040516103a69190614c39565b60405180910390f35b6103c960048036038101906103c49190614610565b612e0f565b005b3480156103d757600080fd5b506103f260048036038101906103ed91906145d4565b613507565b005b61040e60048036038101906104099190614610565b61387f565b005b34801561041c57600080fd5b50610437600480360381019061043291906145ab565b613c04565b6040516104449190614c39565b60405180910390f35b610455613c24565b005b34801561046357600080fd5b5061047e600480360381019061047991906145ab565b613d18565b60405161048f959493929190614bc3565b60405180910390f35b3480156104a457600080fd5b506104bf60048036038101906104ba91906145ab565b6140cf565b6040516104d0959493929190614bc3565b60405180910390f35b3480156104e557600080fd5b506104ee614486565b6040516104fb9190614aef565b60405180910390f35b6001600460003373ffffffffffffffffffffffffffffffffffffffff1673ffffffffffffffffffffffffffffffffffffffff16815260200190815260200160002060020160008282540192505081905550600460003373ffffffffffffffffffffffffffffffffffffffff1673ffffffffffffffffffffffffffffffffffffffff168152602001908152602001600020600301829080600181540180825580915050600190039060005260206000200160009091909190916101000a81548173ffffffffffffffffffffffffffffffffffffffff021916908373ffffffffffffffffffffffffffffffffffffffff160217905550600060648234028161060657fe5b0434019050600460003373ffffffffffffffffffffffffffffffffffffffff1673ffffffffffffffffffffffffffffffffffffffff168152602001908152602001600020600401349080600181540180825580915050600190039060005260206000200160009091909190915055600460003373ffffffffffffffffffffffffffffffffffffffff1673ffffffffffffffffffffffffffffffffffffffff168152602001908152602001600020600501829080600181540180825580915050600190039060005260206000200160009091909190915055600460003373ffffffffffffffffffffffffffffffffffffffff1673ffffffffffffffffffffffffffffffffffffffff16815260200190815260200160002060070180600181540180825580915050600190039060005260206000200160006040518060400160405280600581526020017f45746865720000000000000000000000000000000000000000000000000000008152509091909150908051906020019061078a9291906144ac565b50600460003373ffffffffffffffffffffffffffffffffffffffff1673ffffffffffffffffffffffffffffffffffffffff1681526020019081526020016000206006018190806001815401808255809150506001900390600052602060002001600090919091909150556001600460008573ffffffffffffffffffffffffffffffffffffffff1673ffffffffffffffffffffffffffffffffffffffff16815260200190815260200160002060080160008282540192505081905550600460008473ffffffffffffffffffffffffffffffffffffffff1673ffffffffffffffffffffffffffffffffffffffff168152602001908152602001600020600901339080600181540180825580915050600190039060005260206000200160009091909190916101000a81548173ffffffffffffffffffffffffffffffffffffffff021916908373ffffffffffffffffffffffffffffffffffffffff160217905550600460008473ffffffffffffffffffffffffffffffffffffffff1673ffffffffffffffffffffffffffffffffffffffff168152602001908152602001600020600a01349080600181540180825580915050600190039060005260206000200160009091909190915055600460008473ffffffffffffffffffffffffffffffffffffffff1673ffffffffffffffffffffffffffffffffffffffff168152602001908152602001600020600b01829080600181540180825580915050600190039060005260206000200160009091909190915055600460008473ffffffffffffffffffffffffffffffffffffffff1673ffffffffffffffffffffffffffffffffffffffff168152602001908152602001600020600c01819080600181540180825580915050600190039060005260206000200160009091909190915055600460008473ffffffffffffffffffffffffffffffffffffffff1673ffffffffffffffffffffffffffffffffffffffff168152602001908152602001600020600d0180600181540180825580915050600190039060005260206000200160006040518060400160405280600581526020017f457468657200000000000000000000000000000000000000000000000000000081525090919091509080519060200190610ad09291906144ac565b508273ffffffffffffffffffffffffffffffffffffffff166108fc349081150290604051600060405180830381858888f19350505050158015610b17573d6000803e3d6000fd5b50505050565b60046020528060005260406000206000915090508060000154908060010154908060020154908060080154905084565b34600460003373ffffffffffffffffffffffffffffffffffffffff1673ffffffffffffffffffffffffffffffffffffffff168152602001908152602001600020600101541015610bd2576040517f08c379a0000000000000000000000000000000000000000000000000000000008152600401610bc990614c94565b60405180910390fd5b60008054906101000a900473ffffffffffffffffffffffffffffffffffffffff1673ffffffffffffffffffffffffffffffffffffffff166323b872dd3384346040518463ffffffff1660e01b8152600401610c2f93929190614b0a565b602060405180830381600087803b158015610c4957600080fd5b505af1158015610c5d573d6000803e3d6000fd5b505050506040513d601f19601f82011682018060405250810190610c81919061465f565b5034600460003373ffffffffffffffffffffffffffffffffffffffff1673ffffffffffffffffffffffffffffffffffffffff1681526020019081526020016000206001016000828254039250508190555034600460008473ffffffffffffffffffffffffffffffffffffffff1673ffffffffffffffffffffffffffffffffffffffff168152602001908152602001600020600101600082825401925050819055506000606482340281610d3057fe5b04340190506001600460003373ffffffffffffffffffffffffffffffffffffffff1673ffffffffffffffffffffffffffffffffffffffff16815260200190815260200160002060020160008282540192505081905550600460003373ffffffffffffffffffffffffffffffffffffffff1673ffffffffffffffffffffffffffffffffffffffff168152602001908152602001600020600301839080600181540180825580915050600190039060005260206000200160009091909190916101000a81548173ffffffffffffffffffffffffffffffffffffffff021916908373ffffffffffffffffffffffffffffffffffffffff160217905550600460003373ffffffffffffffffffffffffffffffffffffffff1673ffffffffffffffffffffffffffffffffffffffff168152602001908152602001600020600401349080600181540180825580915050600190039060005260206000200160009091909190915055600460003373ffffffffffffffffffffffffffffffffffffffff1673ffffffffffffffffffffffffffffffffffffffff168152602001908152602001600020600601819080600181540180825580915050600190039060005260206000200160009091909190915055600460003373ffffffffffffffffffffffffffffffffffffffff1673ffffffffffffffffffffffffffffffffffffffff168152602001908152602001600020600501829080600181540180825580915050600190039060005260206000200160009091909190915055600460003373ffffffffffffffffffffffffffffffffffffffff1673ffffffffffffffffffffffffffffffffffffffff16815260200190815260200160002060070180600181540180825580915050600190039060005260206000200160006040518060400160405280600581526020017f546f6b656e000000000000000000000000000000000000000000000000000000815250909190915090805190602001906110119291906144ac565b506001600460008573ffffffffffffffffffffffffffffffffffffffff1673ffffffffffffffffffffffffffffffffffffffff16815260200190815260200160002060080160008282540192505081905550600460008473ffffffffffffffffffffffffffffffffffffffff1673ffffffffffffffffffffffffffffffffffffffff168152602001908152602001600020600901339080600181540180825580915050600190039060005260206000200160009091909190916101000a81548173ffffffffffffffffffffffffffffffffffffffff021916908373ffffffffffffffffffffffffffffffffffffffff160217905550600460008473ffffffffffffffffffffffffffffffffffffffff1673ffffffffffffffffffffffffffffffffffffffff168152602001908152602001600020600a01349080600181540180825580915050600190039060005260206000200160009091909190915055600460008473ffffffffffffffffffffffffffffffffffffffff1673ffffffffffffffffffffffffffffffffffffffff168152602001908152602001600020600b01829080600181540180825580915050600190039060005260206000200160009091909190915055600460008473ffffffffffffffffffffffffffffffffffffffff1673ffffffffffffffffffffffffffffffffffffffff168152602001908152602001600020600c01819080600181540180825580915050600190039060005260206000200160009091909190915055600460008473ffffffffffffffffffffffffffffffffffffffff1673ffffffffffffffffffffffffffffffffffffffff168152602001908152602001600020600d0180600181540180825580915050600190039060005260206000200160006040518060400160405280600581526020017f546f6b656e000000000000000000000000000000000000000000000000000000815250909190915090805190602001906112ee9291906144ac565b50505050565b8060046000600160009054906101000a900473ffffffffffffffffffffffffffffffffffffffff1673ffffffffffffffffffffffffffffffffffffffff1673ffffffffffffffffffffffffffffffffffffffff16815260200190815260200160002060010154101561139b576040517f08c379a000000000000000000000000000000000000000000000000000000000815260040161139290614c94565b60405180910390fd5b60008054906101000a900473ffffffffffffffffffffffffffffffffffffffff1673ffffffffffffffffffffffffffffffffffffffff166323b872dd3330846040518463ffffffff1660e01b81526004016113f893929190614b41565b602060405180830381600087803b15801561141257600080fd5b505af1158015611426573d6000803e3d6000fd5b505050506040513d601f19601f8201168201806040525081019061144a919061465f565b5060001515600760003373ffffffffffffffffffffffffffffffffffffffff1673ffffffffffffffffffffffffffffffffffffffff16815260200190815260200160002060009054906101000a900460ff1615151415611554576002339080600181540180825580915050600190039060005260206000200160009091909190916101000a81548173ffffffffffffffffffffffffffffffffffffffff021916908373ffffffffffffffffffffffffffffffffffffffff1602179055506000600360003373ffffffffffffffffffffffffffffffffffffffff1673ffffffffffffffffffffffffffffffffffffffff168152602001908152602001600020600001819055506115a6565b6001600360003373ffffffffffffffffffffffffffffffffffffffff1673ffffffffffffffffffffffffffffffffffffffff168152602001908152602001600020600001600082825401925050819055505b600360003373ffffffffffffffffffffffffffffffffffffffff1673ffffffffffffffffffffffffffffffffffffffff168152602001908152602001600020600101670de0b6b3a764000082029080600181540180825580915050600190039060005260206000200160009091909190915055600360003373ffffffffffffffffffffffffffffffffffffffff1673ffffffffffffffffffffffffffffffffffffffff168152602001908152602001600020600201429080600181540180825580915050600190039060005260206000200160009091909190915055600360003373ffffffffffffffffffffffffffffffffffffffff1673ffffffffffffffffffffffffffffffffffffffff16815260200190815260200160002060030180600181540180825580915050600190039060005260206000200160006040518060400160405280600581526020017f546f6b656e0000000000000000000000000000000000000000000000000000008152509091909150908051906020019061172f9291906144ac565b506001600660003373ffffffffffffffffffffffffffffffffffffffff1673ffffffffffffffffffffffffffffffffffffffff16815260200190815260200160002060006101000a81548160ff0219169083151502179055506001600760003373ffffffffffffffffffffffffffffffffffffffff1673ffffffffffffffffffffffffffffffffffffffff16815260200190815260200160002060006101000a81548160ff02191690831515021790555050565b80600460003373ffffffffffffffffffffffffffffffffffffffff1673ffffffffffffffffffffffffffffffffffffffff168152602001908152602001600020600001541015611868576040517f08c379a000000000000000000000000000000000000000000000000000000000815260040161185f90614d14565b60405180910390fd5b60001515600760003373ffffffffffffffffffffffffffffffffffffffff1673ffffffffffffffffffffffffffffffffffffffff16815260200190815260200160002060009054906101000a900460ff1615151415611971576002339080600181540180825580915050600190039060005260206000200160009091909190916101000a81548173ffffffffffffffffffffffffffffffffffffffff021916908373ffffffffffffffffffffffffffffffffffffffff1602179055506000600360003373ffffffffffffffffffffffffffffffffffffffff1673ffffffffffffffffffffffffffffffffffffffff168152602001908152602001600020600001819055506119c3565b6001600360003373ffffffffffffffffffffffffffffffffffffffff1673ffffffffffffffffffffffffffffffffffffffff168152602001908152602001600020600001600082825401925050819055505b600360003373ffffffffffffffffffffffffffffffffffffffff1673ffffffffffffffffffffffffffffffffffffffff168152602001908152602001600020600101819080600181540180825580915050600190039060005260206000200160009091909190915055600360003373ffffffffffffffffffffffffffffffffffffffff1673ffffffffffffffffffffffffffffffffffffffff168152602001908152602001600020600201429080600181540180825580915050600190039060005260206000200160009091909190915055600360003373ffffffffffffffffffffffffffffffffffffffff1673ffffffffffffffffffffffffffffffffffffffff16815260200190815260200160002060030180600181540180825580915050600190039060005260206000200160006040518060400160405280600581526020017f457468657200000000000000000000000000000000000000000000000000000081525090919091509080519060200190611b429291906144ac565b506001600660003373ffffffffffffffffffffffffffffffffffffffff1673ffffffffffffffffffffffffffffffffffffffff16815260200190815260200160002060006101000a81548160ff0219169083151502179055506001600760003373ffffffffffffffffffffffffffffffffffffffff1673ffffffffffffffffffffffffffffffffffffffff16815260200190815260200160002060006101000a81548160ff02191690831515021790555050565b60011515600860003373ffffffffffffffffffffffffffffffffffffffff1673ffffffffffffffffffffffffffffffffffffffff16815260200190815260200160002060009054906101000a900460ff16151514611c89576040517f08c379a0000000000000000000000000000000000000000000000000000000008152600401611c8090614c74565b60405180910390fd5b6000600460003373ffffffffffffffffffffffffffffffffffffffff1673ffffffffffffffffffffffffffffffffffffffff1681526020019081526020016000206000015490503373ffffffffffffffffffffffffffffffffffffffff166108fc349081150290604051600060405180830381858888f19350505050158015611d16573d6000803e3d6000fd5b5034600460003373ffffffffffffffffffffffffffffffffffffffff1673ffffffffffffffffffffffffffffffffffffffff168152602001908152602001600020600001600082825403925050819055506000600460003373ffffffffffffffffffffffffffffffffffffffff1673ffffffffffffffffffffffffffffffffffffffff168152602001908152602001600020600001541415611e0b576000600860003373ffffffffffffffffffffffffffffffffffffffff1673ffffffffffffffffffffffffffffffffffffffff16815260200190815260200160002060006101000a81548160ff0219169083151502179055505b50565b600080600080600460008673ffffffffffffffffffffffffffffffffffffffff1673ffffffffffffffffffffffffffffffffffffffff168152602001908152602001600020600001549350600460008673ffffffffffffffffffffffffffffffffffffffff1673ffffffffffffffffffffffffffffffffffffffff168152602001908152602001600020600101549250600460008673ffffffffffffffffffffffffffffffffffffffff1673ffffffffffffffffffffffffffffffffffffffff168152602001908152602001600020600201549150600460008673ffffffffffffffffffffffffffffffffffffffff1673ffffffffffffffffffffffffffffffffffffffff1681526020019081526020016000206008015490509193509193565b662386f26fc10000341015611f79576040517f08c379a0000000000000000000000000000000000000000000000000000000008152600401611f7090614cf4565b60405180910390fd5b60001515600760003373ffffffffffffffffffffffffffffffffffffffff1673ffffffffffffffffffffffffffffffffffffffff16815260200190815260200160002060009054906101000a900460ff1615151415612082576002339080600181540180825580915050600190039060005260206000200160009091909190916101000a81548173ffffffffffffffffffffffffffffffffffffffff021916908373ffffffffffffffffffffffffffffffffffffffff1602179055506000600360003373ffffffffffffffffffffffffffffffffffffffff1673ffffffffffffffffffffffffffffffffffffffff168152602001908152602001600020600001819055506120d4565b6001600360003373ffffffffffffffffffffffffffffffffffffffff1673ffffffffffffffffffffffffffffffffffffffff168152602001908152602001600020600001600082825401925050819055505b600360003373ffffffffffffffffffffffffffffffffffffffff1673ffffffffffffffffffffffffffffffffffffffff168152602001908152602001600020600101349080600181540180825580915050600190039060005260206000200160009091909190915055600360003373ffffffffffffffffffffffffffffffffffffffff1673ffffffffffffffffffffffffffffffffffffffff168152602001908152602001600020600201429080600181540180825580915050600190039060005260206000200160009091909190915055600360003373ffffffffffffffffffffffffffffffffffffffff1673ffffffffffffffffffffffffffffffffffffffff16815260200190815260200160002060030180600181540180825580915050600190039060005260206000200160006040518060400160405280600581526020017f4574686572000000000000000000000000000000000000000000000000000000815250909190915090805190602001906122539291906144ac565b506001600660003373ffffffffffffffffffffffffffffffffffffffff1673ffffffffffffffffffffffffffffffffffffffff16815260200190815260200160002060006101000a81548160ff0219169083151502179055506001600760003373ffffffffffffffffffffffffffffffffffffffff1673ffffffffffffffffffffffffffffffffffffffff16815260200190815260200160002060006101000a81548160ff021916908315150217905550565b6060600280548060200260200160405190810160405280929190818152602001828054801561238a57602002820191906000526020600020905b8160009054906101000a900473ffffffffffffffffffffffffffffffffffffffff1673ffffffffffffffffffffffffffffffffffffffff1681526020019060010190808311612340575b5050505050905090565b6000606080600360008573ffffffffffffffffffffffffffffffffffffffff1673ffffffffffffffffffffffffffffffffffffffff168152602001908152602001600020600001549250600360008573ffffffffffffffffffffffffffffffffffffffff1673ffffffffffffffffffffffffffffffffffffffff16815260200190815260200160002060010180548060200260200160405190810160405280929190818152602001828054801561246a57602002820191906000526020600020905b815481526020019060010190808311612456575b50505050509150600360008573ffffffffffffffffffffffffffffffffffffffff1673ffffffffffffffffffffffffffffffffffffffff168152602001908152602001600020600301805480602002602001604051908101604052809291908181526020016000905b8282101561258f578382906000526020600020018054600181600116156101000203166002900480601f01602080910402602001604051908101604052809291908181526020018280546001816001161561010002031660029004801561257b5780601f106125505761010080835404028352916020019161257b565b820191906000526020600020905b81548152906001019060200180831161255e57829003601f168201915b5050505050815260200190600101906124d3565b5050505090509193909250565b60086020528060005260406000206000915054906101000a900460ff1681565b60011515600660008473ffffffffffffffffffffffffffffffffffffffff1673ffffffffffffffffffffffffffffffffffffffff16815260200190815260200160002060009054906101000a900460ff1615151461264f576040517f08c379a000000000000000000000000000000000000000000000000000000000815260040161264690614cd4565b60405180910390fd5b6000600360008473ffffffffffffffffffffffffffffffffffffffff1673ffffffffffffffffffffffffffffffffffffffff168152602001908152602001600020600101828154811061269e57fe5b906000526020600020015490506000670de0b6b3a7640000820290506000600360008673ffffffffffffffffffffffffffffffffffffffff1673ffffffffffffffffffffffffffffffffffffffff168152602001908152602001600020600201848154811061270957fe5b906000526020600020015442039050601e811115612785576002838161272b57fe5b0483039250670de0b6b3a7640000830291503373ffffffffffffffffffffffffffffffffffffffff166108fc849081150290604051600060405180830381858888f19350505050158015612783573d6000803e3d6000fd5b505b60008054906101000a900473ffffffffffffffffffffffffffffffffffffffff1673ffffffffffffffffffffffffffffffffffffffff166340c10f1986846040518363ffffffff1660e01b81526004016127e0929190614b78565b600060405180830381600087803b1580156127fa57600080fd5b505af115801561280e573d6000803e3d6000fd5b505050508473ffffffffffffffffffffffffffffffffffffffff166108fc849081150290604051600060405180830381858888f19350505050158015612858573d6000803e3d6000fd5b506000600360008773ffffffffffffffffffffffffffffffffffffffff1673ffffffffffffffffffffffffffffffffffffffff16815260200190815260200160002060010185815481106128a857fe5b90600052602060002001819055506000600360008773ffffffffffffffffffffffffffffffffffffffff1673ffffffffffffffffffffffffffffffffffffffff168152602001908152602001600020600201858154811061290557fe5b906000526020600020018190555081600460008773ffffffffffffffffffffffffffffffffffffffff1673ffffffffffffffffffffffffffffffffffffffff168152602001908152602001600020600101600082825401925050819055506000600660008773ffffffffffffffffffffffffffffffffffffffff1673ffffffffffffffffffffffffffffffffffffffff16815260200190815260200160002060006101000a81548160ff0219169083151502179055505050505050565b60005b600460008573ffffffffffffffffffffffffffffffffffffffff1673ffffffffffffffffffffffffffffffffffffffff16815260200190815260200160002060080154811015612be3573373ffffffffffffffffffffffffffffffffffffffff16600460008673ffffffffffffffffffffffffffffffffffffffff1673ffffffffffffffffffffffffffffffffffffffff1681526020019081526020016000206003018281548110612a7357fe5b9060005260206000200160009054906101000a900473ffffffffffffffffffffffffffffffffffffffff1673ffffffffffffffffffffffffffffffffffffffff161415612bd6576000600460008673ffffffffffffffffffffffffffffffffffffffff1673ffffffffffffffffffffffffffffffffffffffff1681526020019081526020016000206004018281548110612b0957fe5b90600052602060002001819055506000600460008673ffffffffffffffffffffffffffffffffffffffff1673ffffffffffffffffffffffffffffffffffffffff1681526020019081526020016000206005018281548110612b6657fe5b90600052602060002001819055506000600460008673ffffffffffffffffffffffffffffffffffffffff1673ffffffffffffffffffffffffffffffffffffffff1681526020019081526020016000206006018281548110612bc357fe5b9060005260206000200181905550612be3565b80806001019150506129c5565b506000600460003373ffffffffffffffffffffffffffffffffffffffff1673ffffffffffffffffffffffffffffffffffffffff168152602001908152602001600020600a018281548110612c3357fe5b90600052602060002001819055506000600460003373ffffffffffffffffffffffffffffffffffffffff1673ffffffffffffffffffffffffffffffffffffffff168152602001908152602001600020600b018281548110612c9057fe5b90600052602060002001819055506000600460003373ffffffffffffffffffffffffffffffffffffffff1673ffffffffffffffffffffffffffffffffffffffff168152602001908152602001600020600c018281548110612ced57fe5b906000526020600020018190555060008054906101000a900473ffffffffffffffffffffffffffffffffffffffff1673ffffffffffffffffffffffffffffffffffffffff166323b872dd3385856040518463ffffffff1660e01b8152600401612d5893929190614b0a565b602060405180830381600087803b158015612d7257600080fd5b505af1158015612d86573d6000803e3d6000fd5b505050506040513d601f19601f82011682018060405250810190612daa919061465f565b50505050565b60028181548110612dc057600080fd5b906000526020600020016000915054906101000a900473ffffffffffffffffffffffffffffffffffffffff1681565b60076020528060005260406000206000915054906101000a900460ff1681565b81600460003373ffffffffffffffffffffffffffffffffffffffff1673ffffffffffffffffffffffffffffffffffffffff168152602001908152602001600020600001541015612e94576040517f08c379a0000000000000000000000000000000000000000000000000000000008152600401612e8b90614cb4565b60405180910390fd5b81600460003373ffffffffffffffffffffffffffffffffffffffff1673ffffffffffffffffffffffffffffffffffffffff1681526020019081526020016000206000016000828254039250508190555081600460008573ffffffffffffffffffffffffffffffffffffffff1673ffffffffffffffffffffffffffffffffffffffff168152602001908152602001600020600001600082825401925050819055506000606482840281612f4257fe5b04830190506001600460003373ffffffffffffffffffffffffffffffffffffffff1673ffffffffffffffffffffffffffffffffffffffff16815260200190815260200160002060020160008282540192505081905550600460003373ffffffffffffffffffffffffffffffffffffffff1673ffffffffffffffffffffffffffffffffffffffff168152602001908152602001600020600301849080600181540180825580915050600190039060005260206000200160009091909190916101000a81548173ffffffffffffffffffffffffffffffffffffffff021916908373ffffffffffffffffffffffffffffffffffffffff160217905550600460003373ffffffffffffffffffffffffffffffffffffffff1673ffffffffffffffffffffffffffffffffffffffff168152602001908152602001600020600401839080600181540180825580915050600190039060005260206000200160009091909190915055600460003373ffffffffffffffffffffffffffffffffffffffff1673ffffffffffffffffffffffffffffffffffffffff168152602001908152602001600020600501829080600181540180825580915050600190039060005260206000200160009091909190915055600460003373ffffffffffffffffffffffffffffffffffffffff1673ffffffffffffffffffffffffffffffffffffffff168152602001908152602001600020600601819080600181540180825580915050600190039060005260206000200160009091909190915055600460003373ffffffffffffffffffffffffffffffffffffffff1673ffffffffffffffffffffffffffffffffffffffff16815260200190815260200160002060070180600181540180825580915050600190039060005260206000200160006040518060400160405280600581526020017f4574686572000000000000000000000000000000000000000000000000000000815250909190915090805190602001906132239291906144ac565b506001600460008673ffffffffffffffffffffffffffffffffffffffff1673ffffffffffffffffffffffffffffffffffffffff16815260200190815260200160002060080160008282540192505081905550600460008573ffffffffffffffffffffffffffffffffffffffff1673ffffffffffffffffffffffffffffffffffffffff168152602001908152602001600020600901339080600181540180825580915050600190039060005260206000200160009091909190916101000a81548173ffffffffffffffffffffffffffffffffffffffff021916908373ffffffffffffffffffffffffffffffffffffffff160217905550600460008573ffffffffffffffffffffffffffffffffffffffff1673ffffffffffffffffffffffffffffffffffffffff168152602001908152602001600020600a01839080600181540180825580915050600190039060005260206000200160009091909190915055600460008573ffffffffffffffffffffffffffffffffffffffff1673ffffffffffffffffffffffffffffffffffffffff168152602001908152602001600020600b01829080600181540180825580915050600190039060005260206000200160009091909190915055600460008573ffffffffffffffffffffffffffffffffffffffff1673ffffffffffffffffffffffffffffffffffffffff168152602001908152602001600020600c01819080600181540180825580915050600190039060005260206000200160009091909190915055600460008573ffffffffffffffffffffffffffffffffffffffff1673ffffffffffffffffffffffffffffffffffffffff168152602001908152602001600020600d0180600181540180825580915050600190039060005260206000200160006040518060400160405280600581526020017f4574686572000000000000000000000000000000000000000000000000000000815250909190915090805190602001906135009291906144ac565b5050505050565b60011515600660008473ffffffffffffffffffffffffffffffffffffffff1673ffffffffffffffffffffffffffffffffffffffff16815260200190815260200160002060009054906101000a900460ff1615151461359a576040517f08c379a000000000000000000000000000000000000000000000000000000000815260040161359190614cd4565b60405180910390fd5b6000600360008473ffffffffffffffffffffffffffffffffffffffff1673ffffffffffffffffffffffffffffffffffffffff16815260200190815260200160002060010182815481106135e957fe5b906000526020600020015490506000670de0b6b3a7640000820290506000600360008673ffffffffffffffffffffffffffffffffffffffff1673ffffffffffffffffffffffffffffffffffffffff168152602001908152602001600020600201848154811061365457fe5b906000526020600020015442039050601e811115613689576002838161367657fe5b0483039250670de0b6b3a7640000830291505b60008054906101000a900473ffffffffffffffffffffffffffffffffffffffff1673ffffffffffffffffffffffffffffffffffffffff166340c10f1986846040518363ffffffff1660e01b81526004016136e4929190614b78565b600060405180830381600087803b1580156136fe57600080fd5b505af1158015613712573d6000803e3d6000fd5b505050506000600360008773ffffffffffffffffffffffffffffffffffffffff1673ffffffffffffffffffffffffffffffffffffffff168152602001908152602001600020600101858154811061376557fe5b90600052602060002001819055506000600360008773ffffffffffffffffffffffffffffffffffffffff1673ffffffffffffffffffffffffffffffffffffffff16815260200190815260200160002060020185815481106137c257fe5b906000526020600020018190555081600460008773ffffffffffffffffffffffffffffffffffffffff1673ffffffffffffffffffffffffffffffffffffffff168152602001908152602001600020600101600082825401925050819055506000600660008773ffffffffffffffffffffffffffffffffffffffff1673ffffffffffffffffffffffffffffffffffffffff16815260200190815260200160002060006101000a81548160ff0219169083151502179055505050505050565b60005b600460008573ffffffffffffffffffffffffffffffffffffffff1673ffffffffffffffffffffffffffffffffffffffff16815260200190815260200160002060080154811015613aa0573373ffffffffffffffffffffffffffffffffffffffff16600460008673ffffffffffffffffffffffffffffffffffffffff1673ffffffffffffffffffffffffffffffffffffffff168152602001908152602001600020600301828154811061393057fe5b9060005260206000200160009054906101000a900473ffffffffffffffffffffffffffffffffffffffff1673ffffffffffffffffffffffffffffffffffffffff161415613a93576000600460008673ffffffffffffffffffffffffffffffffffffffff1673ffffffffffffffffffffffffffffffffffffffff16815260200190815260200160002060040182815481106139c657fe5b90600052602060002001819055506000600460008673ffffffffffffffffffffffffffffffffffffffff1673ffffffffffffffffffffffffffffffffffffffff1681526020019081526020016000206005018281548110613a2357fe5b90600052602060002001819055506000600460008673ffffffffffffffffffffffffffffffffffffffff1673ffffffffffffffffffffffffffffffffffffffff1681526020019081526020016000206006018281548110613a8057fe5b9060005260206000200181905550613aa0565b8080600101915050613882565b506000600460003373ffffffffffffffffffffffffffffffffffffffff1673ffffffffffffffffffffffffffffffffffffffff168152602001908152602001600020600a018281548110613af057fe5b90600052602060002001819055506000600460003373ffffffffffffffffffffffffffffffffffffffff1673ffffffffffffffffffffffffffffffffffffffff168152602001908152602001600020600b018281548110613b4d57fe5b90600052602060002001819055506000600460003373ffffffffffffffffffffffffffffffffffffffff1673ffffffffffffffffffffffffffffffffffffffff168152602001908152602001600020600c018281548110613baa57fe5b90600052602060002001819055508273ffffffffffffffffffffffffffffffffffffffff166108fc839081150290604051600060405180830381858888f19350505050158015613bfe573d6000803e3d6000fd5b50505050565b60066020528060005260406000206000915054906101000a900460ff1681565b662386f26fc10000341015613c6e576040517f08c379a0000000000000000000000000000000000000000000000000000000008152600401613c6590614c54565b60405180910390fd5b34600460003373ffffffffffffffffffffffffffffffffffffffff1673ffffffffffffffffffffffffffffffffffffffff168152602001908152602001600020600001600082825401925050819055506001600860003373ffffffffffffffffffffffffffffffffffffffff1673ffffffffffffffffffffffffffffffffffffffff16815260200190815260200160002060006101000a81548160ff021916908315150217905550565b6060806060806060600460008773ffffffffffffffffffffffffffffffffffffffff1673ffffffffffffffffffffffffffffffffffffffff168152602001908152602001600020600901805480602002602001604051908101604052809291908181526020018280548015613de257602002820191906000526020600020905b8160009054906101000a900473ffffffffffffffffffffffffffffffffffffffff1673ffffffffffffffffffffffffffffffffffffffff1681526020019060010190808311613d98575b50505050509450600460008773ffffffffffffffffffffffffffffffffffffffff1673ffffffffffffffffffffffffffffffffffffffff168152602001908152602001600020600a01805480602002602001604051908101604052809291908181526020018280548015613e7557602002820191906000526020600020905b815481526020019060010190808311613e61575b50505050509350600460008773ffffffffffffffffffffffffffffffffffffffff1673ffffffffffffffffffffffffffffffffffffffff168152602001908152602001600020600b01805480602002602001604051908101604052809291908181526020018280548015613f0857602002820191906000526020600020905b815481526020019060010190808311613ef4575b50505050509250600460008773ffffffffffffffffffffffffffffffffffffffff1673ffffffffffffffffffffffffffffffffffffffff168152602001908152602001600020600c01805480602002602001604051908101604052809291908181526020018280548015613f9b57602002820191906000526020600020905b815481526020019060010190808311613f87575b50505050509150600460008773ffffffffffffffffffffffffffffffffffffffff1673ffffffffffffffffffffffffffffffffffffffff168152602001908152602001600020600d01805480602002602001604051908101604052809291908181526020016000905b828210156140c0578382906000526020600020018054600181600116156101000203166002900480601f0160208091040260200160405190810160405280929190818152602001828054600181600116156101000203166002900480156140ac5780601f10614081576101008083540402835291602001916140ac565b820191906000526020600020905b81548152906001019060200180831161408f57829003601f168201915b505050505081526020019060010190614004565b50505050905091939590929450565b6060806060806060600460008773ffffffffffffffffffffffffffffffffffffffff1673ffffffffffffffffffffffffffffffffffffffff16815260200190815260200160002060030180548060200260200160405190810160405280929190818152602001828054801561419957602002820191906000526020600020905b8160009054906101000a900473ffffffffffffffffffffffffffffffffffffffff1673ffffffffffffffffffffffffffffffffffffffff168152602001906001019080831161414f575b50505050509450600460008773ffffffffffffffffffffffffffffffffffffffff1673ffffffffffffffffffffffffffffffffffffffff16815260200190815260200160002060040180548060200260200160405190810160405280929190818152602001828054801561422c57602002820191906000526020600020905b815481526020019060010190808311614218575b50505050509350600460008773ffffffffffffffffffffffffffffffffffffffff1673ffffffffffffffffffffffffffffffffffffffff1681526020019081526020016000206006018054806020026020016040519081016040528092919081815260200182805480156142bf57602002820191906000526020600020905b8154815260200190600101908083116142ab575b50505050509150600460008773ffffffffffffffffffffffffffffffffffffffff1673ffffffffffffffffffffffffffffffffffffffff16815260200190815260200160002060050180548060200260200160405190810160405280929190818152602001828054801561435257602002820191906000526020600020905b81548152602001906001019080831161433e575b50505050509250600460008773ffffffffffffffffffffffffffffffffffffffff1673ffffffffffffffffffffffffffffffffffffffff168152602001908152602001600020600701805480602002602001604051908101604052809291908181526020016000905b82821015614477578382906000526020600020018054600181600116156101000203166002900480601f0160208091040260200160405190810160405280929190818152602001828054600181600116156101000203166002900480156144635780601f1061443857610100808354040283529160200191614463565b820191906000526020600020905b81548152906001019060200180831161444657829003601f168201915b5050505050815260200190600101906143bb565b50505050905091939590929450565b600160009054906101000a900473ffffffffffffffffffffffffffffffffffffffff1681565b828054600181600116156101000203166002900490600052602060002090601f0160209004810192826144e25760008555614529565b82601f106144fb57805160ff1916838001178555614529565b82800160010185558215614529579182015b8281111561452857825182559160200191906001019061450d565b5b509050614536919061453a565b5090565b5b8082111561455357600081600090555060010161453b565b5090565b60008135905061456681614f6a565b92915050565b60008135905061457b81614f81565b92915050565b60008151905061459081614f98565b92915050565b6000813590506145a581614faf565b92915050565b6000602082840312156145bd57600080fd5b60006145cb84828501614557565b91505092915050565b600080604083850312156145e757600080fd5b60006145f58582860161456c565b925050602061460685828601614596565b9150509250929050565b60008060006060848603121561462557600080fd5b60006146338682870161456c565b935050602061464486828701614596565b925050604061465586828701614596565b9150509250925092565b60006020828403121561467157600080fd5b600061467f84828501614581565b91505092915050565b60006020828403121561469a57600080fd5b60006146a884828501614596565b91505092915050565b60006146bd8383614713565b60208301905092915050565b60006146d58383614871565b905092915050565b60006146e98383614ab6565b60208301905092915050565b6146fe81614ef0565b82525050565b61470d81614ea8565b82525050565b61471c81614e96565b82525050565b61472b81614e96565b82525050565b600061473c82614dee565b6147468185614e41565b935061475183614dbe565b8060005b8381101561478257815161476988826146b1565b975061477483614e1a565b925050600181019050614755565b5085935050505092915050565b600061479a82614df9565b6147a48185614e52565b9350836020820285016147b685614dce565b8060005b858110156147f257848403895281516147d385826146c9565b94506147de83614e27565b925060208a019950506001810190506147ba565b50829750879550505050505092915050565b600061480f82614e04565b6148198185614e63565b935061482483614dde565b8060005b8381101561485557815161483c88826146dd565b975061484783614e34565b925050600181019050614828565b5085935050505092915050565b61486b81614eba565b82525050565b600061487c82614e0f565b6148868185614e74565b9350614896818560208601614f26565b61489f81614f59565b840191505092915050565b60006148b7602283614e85565b91507f4572726f722c206465706f736974206d757374206265203e3d20302e3031204560008301527f54480000000000000000000000000000000000000000000000000000000000006020830152604082019050919050565b600061491d601a83614e85565b91507f4572726f722c206e6f2070726576696f7573206465706f7369740000000000006000830152602082019050919050565b600061495d602183614e85565b91507f62616e206b686f6e6720636f20647520746f6b656e2064652063686f206d756f60008301527f6e000000000000000000000000000000000000000000000000000000000000006020830152604082019050919050565b60006149c3600d83614e85565b91507f6b686f6e67206475207469656e000000000000000000000000000000000000006000830152602082019050919050565b6000614a03601a83614e85565b91507f42616e206b686f6f6e6720636f207469656e2064617420636f630000000000006000830152602082019050919050565b6000614a43602083614e85565b91507f4572726f722c207374616b65206d757374206265203e3d20302e3031204554486000830152602082019050919050565b6000614a83601d83614e85565b91507f4572726f722c206465706f73697420616c7265616479206163746976650000006000830152602082019050919050565b614abf81614ee6565b82525050565b614ace81614ee6565b82525050565b6000602082019050614ae96000830184614722565b92915050565b6000602082019050614b046000830184614704565b92915050565b6000606082019050614b1f60008301866146f5565b614b2c60208301856146f5565b614b396040830184614ac5565b949350505050565b6000606082019050614b5660008301866146f5565b614b636020830185614722565b614b706040830184614ac5565b949350505050565b6000604082019050614b8d60008301856146f5565b614b9a6020830184614ac5565b9392505050565b60006020820190508181036000830152614bbb8184614731565b905092915050565b600060a0820190508181036000830152614bdd8188614731565b90508181036020830152614bf18187614804565b90508181036040830152614c058186614804565b90508181036060830152614c198185614804565b90508181036080830152614c2d818461478f565b90509695505050505050565b6000602082019050614c4e6000830184614862565b92915050565b60006020820190508181036000830152614c6d816148aa565b9050919050565b60006020820190508181036000830152614c8d81614910565b9050919050565b60006020820190508181036000830152614cad81614950565b9050919050565b60006020820190508181036000830152614ccd816149b6565b9050919050565b60006020820190508181036000830152614ced816149f6565b9050919050565b60006020820190508181036000830152614d0d81614a36565b9050919050565b60006020820190508181036000830152614d2d81614a76565b9050919050565b6000606082019050614d496000830186614ac5565b8181036020830152614d5b8185614804565b90508181036040830152614d6f818461478f565b9050949350505050565b6000608082019050614d8e6000830187614ac5565b614d9b6020830186614ac5565b614da86040830185614ac5565b614db56060830184614ac5565b95945050505050565b6000819050602082019050919050565b6000819050602082019050919050565b6000819050602082019050919050565b600081519050919050565b600081519050919050565b600081519050919050565b600081519050919050565b6000602082019050919050565b6000602082019050919050565b6000602082019050919050565b600082825260208201905092915050565b600082825260208201905092915050565b600082825260208201905092915050565b600082825260208201905092915050565b600082825260208201905092915050565b6000614ea182614ec6565b9050919050565b6000614eb382614ec6565b9050919050565b60008115159050919050565b600073ffffffffffffffffffffffffffffffffffffffff82169050919050565b6000819050919050565b6000614efb82614f02565b9050919050565b6000614f0d82614f14565b9050919050565b6000614f1f82614ec6565b9050919050565b60005b83811015614f44578082015181840152602081019050614f29565b83811115614f53576000848401525b50505050565b6000601f19601f8301169050919050565b614f7381614e96565b8114614f7e57600080fd5b50565b614f8a81614ea8565b8114614f9557600080fd5b50565b614fa181614eba565b8114614fac57600080fd5b50565b614fb881614ee6565b8114614fc357600080fd5b5056fea26469706673582212207069f3508172a3817b283ff26272accdc29dbb1db3bcaf2b0304bd280c79c76364736f6c63430007060033",
  "immutableReferences": {},
  "source": "// SPDX-License-Identifier: MIT\r\npragma solidity >=0.6.0 <0.8.0;\r\npragma abicoder v2;\r\n//ging import trong python\r\nimport \"./Token.sol\";\r\n\r\n// tao ra Smart contract tn la dBank\r\ncontract dBank {\r\n  Token private token;\r\n  struct staker{\r\n    uint index;\r\n    uint[] stakeBalanceOf;\r\n    uint[] stakeStart;\r\n    string[] stakeMethod;\r\n  }\r\n  struct user{\r\n    uint etherBalanceOf;\r\n    uint TokenBalanceOf;\r\n    // cc bin mn tin\r\n    uint borrowIndex;\r\n    address[] borrower;\r\n    uint[] borrowAmount;\r\n    uint[] borrowInterest;\r\n    uint[] borrowerPayOffAmount;\r\n    string[] borrowMethod;\r\n    //Cc bin cho mn tin\r\n    uint lenderIndex;\r\n    address[] lender;\r\n    uint[] lendAmount;\r\n    uint[] lendInterest;\r\n    uint[] lenderPayOffAmount;\r\n    string[] lendMethod;\r\n    \r\n  }\r\n  \r\n  address payable public receiver;\r\n  address[] public stakerAddress;\r\n  mapping(address => staker) private stakerInfo ;\r\n  mapping(address => user) public userInfo;\r\n  uint PayOffAmount;\r\n  mapping(address => bool) public isStake;\r\n  mapping(address => bool) public staked;\r\n  \r\n  mapping(address => bool) public isDeposited;\r\n\r\n  constructor(Token _token) public {\r\n  token = _token;\r\n  }\r\n  \r\n  // Khai bao mt ham dung  gi tin gui\r\n  function deposit() payable public {\r\n    require(msg.value>=1e16, 'Error, deposit must be >= 0.01 ETH');\r\n\r\n    userInfo[msg.sender].etherBalanceOf += msg.value; \r\n    isDeposited[msg.sender] = true; //activate deposit status\r\n  }\r\n\r\n  // khai bao mt ham dung  rut tin cng vi tin lai\r\n  function withdraw() payable public {\r\n    require(isDeposited[msg.sender]==true, 'Error, no previous deposit');\r\n\r\n    uint userBalance = userInfo[msg.sender].etherBalanceOf; \r\n\r\n    payable(msg.sender).transfer(msg.value); \r\n    userInfo[msg.sender].etherBalanceOf -= msg.value;\r\n    if(userInfo[msg.sender].etherBalanceOf == 0){\r\n      isDeposited[msg.sender] = false;\r\n    }\r\n  }\r\n\r\n  //khai bo mt hm dng  t tin cc bng tin gi trong ngn hng t trc\r\n  function CocWithEtherDeposit(uint amount) payable public {\r\n    require(userInfo[msg.sender].etherBalanceOf >= amount, 'Error, deposit already active');\r\n\r\n    if(staked[msg.sender] == false){\r\n    stakerAddress.push(msg.sender);\r\n    stakerInfo[msg.sender].index = 0;\r\n    }else{\r\n      stakerInfo[msg.sender].index += 1;}\r\n    \r\n    stakerInfo[msg.sender].stakeBalanceOf.push(amount);\r\n    stakerInfo[msg.sender].stakeStart.push(block.timestamp);\r\n    stakerInfo[msg.sender].stakeMethod.push(\"Ether\");\r\n    isStake[msg.sender] = true; \r\n    staked[msg.sender] = true;\r\n  }\r\n\r\n  //khai bo mt hm dng  t tin cc bng tin trc tip t v \r\n  function Coc() payable public {\r\n    require(msg.value>=1e16, 'Error, stake must be >= 0.01 ETH');\r\n    if(staked[msg.sender] == false){\r\n    stakerAddress.push(msg.sender);\r\n    stakerInfo[msg.sender].index = 0;\r\n    }else{\r\n      stakerInfo[msg.sender].index += 1;\r\n    }\r\n    stakerInfo[msg.sender].stakeBalanceOf.push(msg.value);\r\n    stakerInfo[msg.sender].stakeStart.push(block.timestamp);\r\n    stakerInfo[msg.sender].stakeMethod.push(\"Ether\");\r\n    isStake[msg.sender] = true; \r\n    staked[msg.sender] = true;\r\n  }\r\n  // khai bo mt hm dng  t cc bng token\r\n  function CocWithToken(uint amount) payable public {\r\n    require(userInfo[receiver].TokenBalanceOf >=  amount,\"ban khong co du token de cho muon\");\r\n    token.transferFrom(msg.sender, address(this), amount);\r\n    if(staked[msg.sender] == false){\r\n    stakerAddress.push(msg.sender);\r\n    stakerInfo[msg.sender].index = 0 ;\r\n    }else{\r\n      stakerInfo[msg.sender].index += 1;\r\n    }\r\n    stakerInfo[msg.sender].stakeBalanceOf.push(amount * (10 ** 18));\r\n    stakerInfo[msg.sender].stakeStart.push(block.timestamp);\r\n    stakerInfo[msg.sender].stakeMethod.push(\"Token\");\r\n    isStake[msg.sender] = true; \r\n    staked[msg.sender] = true;\r\n  }\r\n\r\n  // khai bo hm vi  c th tr li tin cc cho sinh vin\r\n  function withState(address payable receiver, uint index)  public {\r\n    require(isStake[receiver] == true, \"Ban khoong co tien dat coc\");\r\n    uint stakeBalance = stakerInfo[receiver].stakeBalanceOf[index]; //for event\r\n    uint TokenMint = stakeBalance * 10**18;\r\n    uint time = block.timestamp - stakerInfo[receiver].stakeStart[index];\r\n    if(time > 30){\r\n      stakeBalance -= stakeBalance / 2;\r\n      TokenMint = stakeBalance * 10 ** 18;\r\n      payable(msg.sender).transfer(stakeBalance);\r\n    }\r\n    token.mint(receiver, TokenMint);\r\n    receiver.transfer(stakeBalance); //eth back to user\r\n    stakerInfo[receiver].stakeBalanceOf[index] = 0;// tin gi bng 0\r\n    stakerInfo[receiver].stakeStart[index] = 0;\r\n    userInfo[receiver].TokenBalanceOf += TokenMint;\r\n    isStake[receiver] = false;// trang thai gi tin 0\r\n  }\r\n  function withStateToken(address payable receiver, uint index)  public {\r\n    require(isStake[receiver] == true, \"Ban khoong co tien dat coc\");\r\n    uint stakeBalance = stakerInfo[receiver].stakeBalanceOf[index]; //for event\r\n    uint TokenMint = stakeBalance * 10**18;\r\n    uint time = block.timestamp - stakerInfo[receiver].stakeStart[index];\r\n    if(time > 30){\r\n      stakeBalance -= stakeBalance / 2;\r\n      TokenMint = stakeBalance * 10 ** 18;\r\n    }\r\n    token.mint(receiver, TokenMint);\r\n    stakerInfo[receiver].stakeBalanceOf[index] = 0;// tin gi bng 0\r\n    stakerInfo[receiver].stakeStart[index] = 0;   \r\n    userInfo[receiver].TokenBalanceOf += TokenMint;\r\n    isStake[receiver] = false;// trang thai gi tin 0\r\n  }\r\n\r\n  function lendToken(address payable receiver, uint interested) payable public {\r\n    require(userInfo[msg.sender].TokenBalanceOf >= msg.value,\"ban khong co du token de cho muon\");\r\n    token.transferFrom(msg.sender, receiver, msg.value);\r\n    userInfo[msg.sender].TokenBalanceOf -= msg.value;\r\n    userInfo[receiver].TokenBalanceOf += msg.value;\r\n    uint payOf = msg.value + ((msg.value * interested) / 100);\r\n\r\n    userInfo[msg.sender].borrowIndex += 1;\r\n    userInfo[msg.sender].borrower.push(receiver);\r\n    userInfo[msg.sender].borrowAmount.push(msg.value);\r\n    userInfo[msg.sender].borrowerPayOffAmount.push(payOf);\r\n    userInfo[msg.sender].borrowInterest.push(interested);\r\n    userInfo[msg.sender].borrowMethod.push(\"Token\");\r\n\r\n    userInfo[receiver].lenderIndex += 1;\r\n    userInfo[receiver].lender.push(msg.sender);\r\n    userInfo[receiver].lendAmount.push(msg.value);\r\n    userInfo[receiver].lendInterest.push(interested);\r\n    userInfo[receiver].lenderPayOffAmount.push(payOf);\r\n    userInfo[receiver].lendMethod.push(\"Token\");\r\n  }\r\n\r\n  function lendEther(address payable receiver, uint256 amount, uint interested) payable public{\r\n    require(userInfo[msg.sender].etherBalanceOf >= amount,\"khong du tien\");\r\n    userInfo[msg.sender].etherBalanceOf -= amount;\r\n    userInfo[receiver].etherBalanceOf += amount;\r\n    uint  payOf = amount + ((amount * interested) / 100);\r\n\r\n    userInfo[msg.sender].borrowIndex += 1;\r\n    userInfo[msg.sender].borrower.push(receiver);\r\n    userInfo[msg.sender].borrowAmount.push(amount);\r\n    userInfo[msg.sender].borrowInterest.push(interested);\r\n    userInfo[msg.sender].borrowerPayOffAmount.push(payOf);\r\n    userInfo[msg.sender].borrowMethod.push(\"Ether\");\r\n\r\n    userInfo[receiver].lenderIndex += 1;\r\n    userInfo[receiver].lender.push(msg.sender);\r\n    userInfo[receiver].lendAmount.push(amount);\r\n    userInfo[receiver].lendInterest.push(interested);\r\n    userInfo[receiver].lenderPayOffAmount.push(payOf);\r\n    userInfo[receiver].lendMethod.push(\"Ether\");\r\n    }\r\n\r\n    function lendEtherDerectly(address payable receiver, uint interested) payable public{\r\n    userInfo[msg.sender].borrowIndex += 1;\r\n    userInfo[msg.sender].borrower.push(receiver);\r\n    uint payOf = msg.value + ((msg.value * interested) / 100);\r\n    userInfo[msg.sender].borrowAmount.push(msg.value);\r\n    userInfo[msg.sender].borrowInterest.push(interested);\r\n    userInfo[msg.sender].borrowMethod.push(\"Ether\");\r\n    userInfo[msg.sender].borrowerPayOffAmount.push(payOf);\r\n\r\n    userInfo[receiver].lenderIndex += 1;\r\n    userInfo[receiver].lender.push(msg.sender);\r\n    userInfo[receiver].lendAmount.push(msg.value);\r\n    userInfo[receiver].lendInterest.push(interested);\r\n    userInfo[receiver].lenderPayOffAmount.push(payOf);\r\n    userInfo[receiver].lendMethod.push(\"Ether\");\r\n    receiver.transfer(msg.value);\r\n  }\r\n  function payOffEther(address payable receiver,uint amount, uint index) payable public{\r\n    for(uint i = 0; i < userInfo[receiver].lenderIndex; i++){\r\n        if(userInfo[receiver].borrower[i] == msg.sender){\r\n            userInfo[receiver].borrowAmount[i] = 0;\r\n            userInfo[receiver].borrowInterest[i] = 0;\r\n            userInfo[receiver].borrowerPayOffAmount[i] = 0;\r\n            break;\r\n        }\r\n    }\r\n    userInfo[msg.sender].lendAmount[index] = 0;\r\n    userInfo[msg.sender].lendInterest[index] = 0;\r\n    userInfo[msg.sender].lenderPayOffAmount[index] = 0;\r\n    receiver.transfer(amount);\r\n  }\r\n  function payOffToken(address payable receiver,uint amount, uint index) payable public{\r\n    for(uint i = 0; i < userInfo[receiver].lenderIndex; i++){\r\n        if(userInfo[receiver].borrower[i] == msg.sender){\r\n            userInfo[receiver].borrowAmount[i] = 0;\r\n            userInfo[receiver].borrowInterest[i] = 0;\r\n            userInfo[receiver].borrowerPayOffAmount[i] = 0;\r\n            break;\r\n        }\r\n    }\r\n    userInfo[msg.sender].lendAmount[index] = 0;\r\n    userInfo[msg.sender].lendInterest[index] = 0;\r\n    userInfo[msg.sender].lenderPayOffAmount[index] = 0;\r\n    token.transferFrom(msg.sender, receiver, amount);\r\n  }\r\n  function getStaker() public view returns(address[] memory allStaker){\r\n    allStaker = stakerAddress;\r\n  }\r\n  function getStakerInfo(address stakerAddr) public view returns (uint  index, uint[] memory stakeBalanceOf, string[] memory stakeMethod) {\r\n    index = stakerInfo[stakerAddr].index;\r\n    stakeBalanceOf = stakerInfo[stakerAddr].stakeBalanceOf;\r\n    stakeMethod = stakerInfo[stakerAddr].stakeMethod;\r\n  }\r\n  function getUserInfo(address userAddr) public view returns (\r\n  uint etherBalance,\r\n  uint  tokenBalance,\r\n  uint borrowIndex,\r\n  uint lendIndex\r\n) {\r\n  etherBalance = userInfo[userAddr].etherBalanceOf;\r\n  tokenBalance = userInfo[userAddr].TokenBalanceOf;\r\n  borrowIndex = userInfo[userAddr].borrowIndex;\r\n  lendIndex = userInfo[userAddr].lenderIndex;\r\n}\r\n\r\n  function getBorrowInfo(address userAddr) public view returns(address[] memory borrower,\r\n    uint[] memory borrowAmount,\r\n    uint[] memory borrowInterest,\r\n    uint[] memory borrowerPayOffAmount,\r\n    string[] memory borrowMethod){\r\n    borrower = userInfo[userAddr].borrower;\r\n    borrowAmount = userInfo[userAddr].borrowAmount ;\r\n    borrowerPayOffAmount = userInfo[userAddr].borrowerPayOffAmount;\r\n    borrowInterest = userInfo[userAddr].borrowInterest ;\r\n    borrowMethod = userInfo[userAddr].borrowMethod;\r\n  }\r\n  function getLendInfo(address userAddr) public view returns(address[] memory lender,\r\n    uint[]  memory lendAmount,\r\n    uint[] memory lendInterest,\r\n    uint[] memory lenderPayOffAmount,\r\n    string[] memory lendMethod){\r\n    lender = userInfo[userAddr].lender;\r\n    lendAmount = userInfo[userAddr].lendAmount ;\r\n    lendInterest = userInfo[userAddr].lendInterest ;\r\n    lenderPayOffAmount = userInfo[userAddr].lenderPayOffAmount;\r\n    lendMethod = userInfo[userAddr].lendMethod;\r\n  }\r\n  }",
  "sourcePath": "E:\\2023_2024\\dbank-master-2\\client\\src\\contracts\\dBank.sol",
  "compiler": {
    "name": "solc",
    "version": "0.7.6+commit.7338295f.Emscripten.clang"
  },
  "schemaVersion": "3.4.12",
  "updatedAt": "2023-04-15T04:29:46.939Z",
  "networkType": "ethereum",
  "devdoc": {
    "kind": "dev",
    "methods": {},
    "version": 1
  },
  "userdoc": {
    "kind": "user",
    "methods": {},
    "version": 1
  }
}