{
  "contractName": "EtherSplitter",
  "abi": [
    {
      "inputs": [],
      "stateMutability": "nonpayable",
      "type": "constructor"
    },
    {
      "inputs": [],
      "name": "deposit",
      "outputs": [
        {
          "internalType": "uint256",
          "name": "",
          "type": "uint256"
        }
      ],
      "stateMutability": "view",
      "type": "function"
    },
    {
      "inputs": [],
      "name": "owner",
      "outputs": [
        {
          "internalType": "address payable",
          "name": "",
          "type": "address"
        }
      ],
      "stateMutability": "view",
      "type": "function"
    },
    {
      "inputs": [],
      "name": "depositEther",
      "outputs": [],
      "stateMutability": "payable",
      "type": "function"
    },
    {
      "inputs": [],
      "name": "withdrawEther",
      "outputs": [],
      "stateMutability": "nonpayable",
      "type": "function"
    },
    {
      "inputs": [],
      "name": "cancelWithdrawal",
      "outputs": [],
      "stateMutability": "nonpayable",
      "type": "function"
    }
  ],
  "bytecode": "0x608060405234801561001057600080fd5b50336000806101000a81548173ffffffffffffffffffffffffffffffffffffffff021916908373ffffffffffffffffffffffffffffffffffffffff1602179055506104ac806100606000396000f3fe60806040526004361061004a5760003560e01c8063226112801461004f5780637362377b146100665780638da5cb5b1461007d57806398ea5fca146100be578063d0e30db0146100c8575b600080fd5b34801561005b57600080fd5b506100646100f3565b005b34801561007257600080fd5b5061007b610225565b005b34801561008957600080fd5b506100926103c4565b604051808273ffffffffffffffffffffffffffffffffffffffff16815260200191505060405180910390f35b6100c66103e8565b005b3480156100d457600080fd5b506100dd610470565b6040518082815260200191505060405180910390f35b60008054906101000a900473ffffffffffffffffffffffffffffffffffffffff1673ffffffffffffffffffffffffffffffffffffffff163373ffffffffffffffffffffffffffffffffffffffff16146101b4576040517f08c379a00000000000000000000000000000000000000000000000000000000081526004018080602001828103825260198152602001807f4f6e6c7920746865206f776e65722063616e2063616e63656c0000000000000081525060200191505060405180910390fd5b600060018190555060008054906101000a900473ffffffffffffffffffffffffffffffffffffffff1673ffffffffffffffffffffffffffffffffffffffff166108fc479081150290604051600060405180830381858888f19350505050158015610222573d6000803e3d6000fd5b50565b60008054906101000a900473ffffffffffffffffffffffffffffffffffffffff1673ffffffffffffffffffffffffffffffffffffffff163373ffffffffffffffffffffffffffffffffffffffff16146102e6576040517f08c379a000000000000000000000000000000000000000000000000000000000815260040180806020018281038252601b8152602001807f4f6e6c7920746865206f776e65722063616e207769746864726177000000000081525060200191505060405180910390fd5b60006002600154816102f457fe5b049050600060018190555060008054906101000a900473ffffffffffffffffffffffffffffffffffffffff1673ffffffffffffffffffffffffffffffffffffffff166108fc829081150290604051600060405180830381858888f19350505050158015610365573d6000803e3d6000fd5b50735934b9d45912fca4ee53a812a88243d35ba021d473ffffffffffffffffffffffffffffffffffffffff166108fc829081150290604051600060405180830381858888f193505050501580156103c0573d6000803e3d6000fd5b5050565b60008054906101000a900473ffffffffffffffffffffffffffffffffffffffff1681565b6000341161045e576040517f08c379a00000000000000000000000000000000000000000000000000000000081526004018080602001828103825260178152602001807f4d757374206465706f73697420736f6d6520657468657200000000000000000081525060200191505060405180910390fd5b34600160008282540192505081905550565b6001548156fea2646970667358221220fce5a9e31806e15b297b7e357ecec6b17e3b2cb6d23b142964df8f68f7189c7564736f6c63430007060033",
  "immutableReferences": {},
  "source": "pragma solidity >=0.6.0 <0.8.0;\r\n\r\ncontract EtherSplitter {\r\n    address payable public owner;\r\n    uint public deposit;\r\n\r\n    constructor() {\r\n        owner = payable(msg.sender);\r\n    }\r\n\r\n    function depositEther() public payable {\r\n        require(msg.value > 0, \"Must deposit some ether\");\r\n        deposit += msg.value;\r\n    }\r\n\r\n    function withdrawEther() public {\r\n        require(msg.sender == owner, \"Only the owner can withdraw\");\r\n        uint amountToSend = deposit / 2;\r\n        deposit = 0;\r\n        owner.transfer(amountToSend);\r\n        payable(0x5934b9D45912FCA4eE53A812A88243d35bA021D4).transfer(amountToSend); // Replace with desired destination address\r\n    }\r\n\r\n    function cancelWithdrawal() public {\r\n        require(msg.sender == owner, \"Only the owner can cancel\");\r\n        deposit = 0;\r\n        owner.transfer(address(this).balance);\r\n    }\r\n}\r\n",
  "sourcePath": "E:\\2023_2024\\IUH_HK2_2022_2023\\LTPTDL2\\dbank-master\\src\\contracts\\dBank.sol",
  "compiler": {
    "name": "solc",
    "version": "0.7.6+commit.7338295f.Emscripten.clang"
  },
  "schemaVersion": "3.4.12",
  "updatedAt": "2023-03-12T11:39:06.920Z",
  "devdoc": {
    "kind": "dev",
    "methods": {},
    "version": 1
  },
  "userdoc": {
    "kind": "user",
    "methods": {},
    "version": 1
  }
}